1000089909706201708150001OFICINA DE PENSIONES DEL ESTADO DE OJUBILADOS           15D01
210010000000000-16980000100000000044110110143000566
30001010010000000000000-30000300005256780579456192103             RAMIREZ GONZALEZ LUCINA                                RAGL390618NP                                                                                                                                000000                                                                                                                                                        
30001010010000000000000-30000300005256780426011497106             HEINZE RAMIREZ CARMEN ELENA                            HERC400331UF                                                                                                                                000000                                                                                                                                                        
30001010010000000000000-30000300005256786005056993147             PEREZ MARTINEZ ESTHER                                  PEME400121                                                                                                                                  000000                                                                                                                                                        
30001010010000000000000-30000300005256781287075290295             JIMENEZ ARAGON MAURA MARTHA                            JIAM471121CU                                                                                                                                000000                                                                                                                                                        
30001010010000000000000-30000300005256788152305496436             RAMIREZ FUENTES GUADALUPE                              RAFG540804HP                                                                                                                                000000                                                                                                                                                        
30001010010000000000000-30000300005256780337096892569             PAREDES AYALA MA. ISABEL                               PAAI590714                                                                                                                                  000000                                                                                                                                                        
30001010010000000000000-30000300005256780337103292641             CRUZ GOMEZ JUANA ELIA                                  CUGJ560127GY                                                                                                                                000000                                                                                                                                                        
30001010010000000000000-30000300005256781535324094699             TRONCOZO VASQUEZ MARIA CRISTINA BETTY                  TOVC381121NC                                                                                                                                000000                                                                                                                                                        
30001010010000000000000-30000300005256780337095597700             GARCIA GUZMAN MARIA LUISA                              GAGL460825                                                                                                                                  000000                                                                                                                                                        
30001010010000000000000-30000300005256780925078898818             CERVANTES RODRIGUEZ MARIA DE LOURDES                   CERL580324LS                                                                                                                                000000                                                                                                                                                        
30001010010000000000000-30000300005256781577782399835             GONZALEZ REYES JUANA EMILIANA                          GORJ570702UW                                                                                                                                000000                                                                                                                                                        
30001010010000000000000-30000300005256780337090796839             DE LA BARRERA ESCAMILLA SILVIA                         BAES490403UZ                                                                                                                                000000                                                                                                                                                        
30001010010000000000000-30000300005256780337095399851             VELASQUEZ CERVANTES REYNA ZOILA                        VECR60052857                                                                                                                                000000                                                                                                                                                        
30001010010000000000000-30000300005256780357891594887             MORA LICONA MARTHA ELBA                                MOLM6111306C                                                                                                                                000000                                                                                                                                                        
30001010010000000000000-30000300005256780609966590904             LUIS MALDONADO YOLANDA LEONOR                          LUMY521217HJ                                                                                                                                000000                                                                                                                                                        
30001010010000000000000-30000300005256780839524292907             RIOS DE LA ROSA ANA MARIA                              RIRA600610AH                                                                                                                                000000                                                                                                                                                        
30001010010000000000000-30000300005256781577789493918             SOSA ROJAS GLORIA CATALINA                             SORG550430KI                                                                                                                                000000                                                                                                                                                        
30001010010000000000000-30000300005256781050245096923             ESTEVA PEREZ ANA HORTENCIA                             EEPA520726GK                                                                                                                                000000                                                                                                                                                        
30001010010000000000000-30000300005256780789493290960             VELASCO ALTAMIRANO LIDIA MINERVA                       VEAL520219SM                                                                                                                                000000                                                                                                                                                        
30001010010000000000000-30000300005256780299007994964             CASTELLANOS SORIANO SANTA JOSEFINA                     CASS621005NB                                                                                                                                000000                                                                                                                                                        
30001010010000000000000-30000300005256780385553695988             BRENA LOAEZA MARIA DE JESUS                            BELJ440626HD                                                                                                                                000000                                                                                                                                                        
30001010010000000000000-30000300005256781577795292991             CRUZ AYUZO SERAPIA HERACLIA                            CUAS5705178W                                                                                                                                000000                                                                                                                                                        
30001010010000000000000-300003000052567805794554911047            ALDECO CRUZ MARIA DE LOS ANGELES                       AECA581207                                                                                                                                  000000                                                                                                                                                        
30001010010000000000000-300003000052567803855260971080            MAURICIO MOTA DOLORES                                  MAMD640320ND                                                                                                                                000000                                                                                                                                                        
30001010010000000000000-300003000052567805584847931140            QUINTAS MANTECON LUCILA NOEMI                          QUML351031I6                                                                                                                                000000                                                                                                                                                        
30001010010000000000000-300003000052567810848435931161            CARREÑO ROSARIO VICTORIA MERICIA                       CARV6107284A                                                                                                                                000000                                                                                                                                                        
30001010010000000000000-300003000052567815773296961172            AGUILAR BARROSO ALMA OFELIA                            AUBA640402AF                                                                                                                                000000                                                                                                                                                        
30001010010000000000000-300003000052567805016924921180            JIMENEZ ESPINA FLORINA DEL SOCORRO                     JIEF5705018D                                                                                                                                000000                                                                                                                                                        
30001010010000000000000-300003000052567804259903941223            LINALDI HERNANDEZ LIDIA                                LIHL590816LE                                                                                                                                000000                                                                                                                                                        
30001010010000000000000-300003000052567812994525941239            RICARDEZ TAMES BLANCA AZUCENA                          RITB4102104K                                                                                                                                000000                                                                                                                                                        
30001010010000000000000-300003000052567803370954981252            MARTINEZ SUMANO ARTEMIA GUADALUPE                      MASA611224HR                                                                                                                                000000                                                                                                                                                        
30001010010000000000000-300003000052567815773439941284            HERRERA MARTINEZ ROSA                                  HEMR280830IJ                                                                                                                                000000                                                                                                                                                        
30001010010000000000000-300003000052567802224044901296            AQUINO PEREZ ZOILA DIONICIA                            AUPZ601021H4                                                                                                                                000000                                                                                                                                                        
30001010010000000000000-300003000052567802224043911297            MENDEZ VICTORIA MARIA DE LOURDEZ BEATRIZ               MEVL6110084T                                                                                                                                000000                                                                                                                                                        
30001010010000000000000-300003000052567802224045991298            ARRAZOLA MONTES MARCELA CARMELINA                      AAMM590116C9                                                                                                                                000000                                                                                                                                                        
30001010010000000000000-300003000052567802224047971300            ROBLES ANA MARIA                                       ROAN6202225L                                                                                                                                000000                                                                                                                                                        
30001010010000000000000-300003000052567802224048961301            SANTOS GARCIA MARIA EUGENIA                            SAGE550919TK                                                                                                                                000000                                                                                                                                                        
30001010010000000000000-300003000052567802224076911307            GARCIA ENRIQUEZ MARTINA BATILDE                        GAEM570130G4                                                                                                                                000000                                                                                                                                                        
30001010010000000000000-300003000052567802224054971308            BENITEZ CARBALLIDO GEMMA                               BECG640411IG                                                                                                                                000000                                                                                                                                                        
30001010010000000000000-300003000052567802224056951310            LOPEZ ANTONIO ROSARIO PILAR                            LOAR581005FU                                                                                                                                000000                                                                                                                                                        
30001010010000000000000-300003000052567802224057941312            RAMIREZ GUZMAN CRISTINA GENOVEVA                       RAGC571227IW                                                                                                                                000000                                                                                                                                                        
30001010010000000000000-300003000052567802224059921314            CARMONA REYES IRENE                                    CARI611020IX                                                                                                                                000000                                                                                                                                                        
30001010010000000000000-300003000052567802224060991315            SANCHEZ RIOS ROSA MARIA                                SARR620401VB                                                                                                                                000000                                                                                                                                                        
30001010010000000000000-300003000052567811709565981316            JIMENEZ LEON ISIDRA                                    JILI540515EG                                                                                                                                000000                                                                                                                                                        
30001010010000000000000-300003000052567802224063961318            ROBLES LOPEZ GILA                                      ROLG6504232I                                                                                                                                000000                                                                                                                                                        
30001010010000000000000-300003000052567802990082991320            LOPEZ HERAS GLORIA                                     LOHG600820DT                                                                                                                                000000                                                                                                                                                        
30001010010000000000000-300003000052567802990084971321            CRUZ LOPEZ FIDELINA                                    CULF650427RB                                                                                                                                000000                                                                                                                                                        
30001010010000000000000-300003000052567802990088931322            CORTES RIOS CATALINA MARGARITA                         CORC5712013U                                                                                                                                000000                                                                                                                                                        
30001010010000000000000-300003000052567802990089921323            CRUZ CRUZ MARGARITA                                    CUCM6505127D                                                                                                                                000000                                                                                                                                                        
30001010010000000000000-300003000052567812994513981324            RAMIREZ RUBIO MA ERNESTINA                             RARE6211073M                                                                                                                                000000                                                                                                                                                        
30001010010000000000000-300003000052567802990080911325            HERNANDEZ LORENZO CARMEN                               HELC550701QJ                                                                                                                                000000                                                                                                                                                        
30001010010000000000000-300003000052567802224123941327            CHAGOYA BERNAL MARIA ALEJANDRINA                       CABA581125KK                                                                                                                                000000                                                                                                                                                        
30001010010000000000000-300003000052567802224126911330            MORENO ARAGON HILARIA                                  MOAH470228PI                                                                                                                                000000                                                                                                                                                        
30001010010000000000000-300003000052567802224127901331            ROBLES BARRON GRACIELA LOURDES                         ROBG5004267E                                                                                                                                000000                                                                                                                                                        
30001010010000000000000-300003000052567802224128991332            MARTINEZ MARTINEZ MARICELA YOLANDA                     MAMM5305108D                                                                                                                                000000                                                                                                                                                        
30001010010000000000000-300003000052567802224131941335            GARCIA NUÑO CARMEN EUDOSIA                             GANC581102TB                                                                                                                                000000                                                                                                                                                        
30001010010000000000000-300003000052567802990085961336            CASTELLANOS CRUZ JUANA ELIZABETH                       CACJ530624TM                                                                                                                                000000                                                                                                                                                        
30001010010000000000000-300003000052567802990099901339            CRUZ EUGENIA                                           CUSE501115EZ                                                                                                                                000000                                                                                                                                                        
30001010010000000000000-300003000052567802990096931344            SANCHEZ SOTO JOSEFINA LUCIA                            SASJ630325UB                                                                                                                                000000                                                                                                                                                        
30001010010000000000000-300003000052567802990110951345            MENDEZ SANCHEZ CLAUDIA ESTELA                          MESC640518U1                                                                                                                                000000                                                                                                                                                        
30001010010000000000000-300003000052567806252386931347            LAZARO LOPEZ MARIA ROSAURA                             LALR650930PR                                                                                                                                000000                                                                                                                                                        
30001010010000000000000-300003000052567803370911901351            PABLO MANUEL MARGARITA                                 PAMM6403077L                                                                                                                                000000                                                                                                                                                        
30001010010000000000000-300003000052567803370909941353            MARTINEZ HERNANDEZ AURELIA                             MAHA460929I9                                                                                                                                000000                                                                                                                                                        
30001010010000000000000-300003000052567814752233971357            LOPEZ LOPEZ PETRONILA                                  LOLP600427H9                                                                                                                                000000                                                                                                                                                        
30001010010000000000000-300003000052567803855356921358            MARTINEZ GARCIA DELTA REBECA                           MAGD6605016Z                                                                                                                                000000                                                                                                                                                        
30001010010000000000000-300003000052567803855321941359            BEAR BURGUETE MARIA EUGENIA                            BEBE5607134I                                                                                                                                000000                                                                                                                                                        
30001010010000000000000-300003000052567803855322931360            BAUTISTA CALLEJA MARGARITA                             BACM571017EW                                                                                                                                000000                                                                                                                                                        
30001010010000000000000-300003000052567808241778901362            MORALES MATIAS TERESA                                  MOMT651026TU                                                                                                                                000000                                                                                                                                                        
30001010010000000000000-300003000052567816287461951363            CONTRERAS IBAÑEZ BLANCA ANGELICA                       COIB66080293                                                                                                                                000000                                                                                                                                                        
30001010010000000000000-300003000052567803855328971366            MARTINEZ CERVANTES EMMA                                MACE5704197V                                                                                                                                000000                                                                                                                                                        
30001010010000000000000-300003000052567803855279961367            REYES SANCHEZ GUADALUPE                                RESG581206R2                                                                                                                                000000                                                                                                                                                        
30001010010000000000000-300003000052567803855280931368            BAUTISTA GARCIA IRMA ESTELA                            BAGI640105RP                                                                                                                                000000                                                                                                                                                        
30001010010000000000000-300003000052567802999576931369            BAUTISTA GARCIA ROSA OLIVA                             BAGR6009213V                                                                                                                                000000                                                                                                                                                        
30001010010000000000000-300003000052567802999577921370            MARTINEZ CRUZ ISABEL GUADALUPE                         MACI621209EQ                                                                                                                                000000                                                                                                                                                        
30001010010000000000000-300003000052567802999579901372            HERNANDEZ RAMIREZ MARTINA HORTENSIA                    HERM5311123H                                                                                                                                000000                                                                                                                                                        
30001010010000000000000-300003000052567802999581961377            AQUINO LOPEZ HERMELINDA                                AULH591027IG                                                                                                                                000000                                                                                                                                                        
30001010010000000000000-300003000052567802999582951378            BAUTISTA TORRES JUANA ERICA                            BATJ4811173Y                                                                                                                                000000                                                                                                                                                        
30001010010000000000000-300003000052567803855574981380            ROJAS GONZALEZ FAUSTA MARIELA                          ROGF590920LD                                                                                                                                000000                                                                                                                                                        
30001010010000000000000-300003000052567809946065951381            SUMANO HERNANDEZ SIRENIA MARIA                         SUHS63111031                                                                                                                                000000                                                                                                                                                        
30001010010000000000000-300003000052567809195042971384            HERNANDEZ CRUZ ANTONIA                                 HECA480902CI                                                                                                                                000000                                                                                                                                                        
30001010010000000000000-300003000052567803855529941385            IBAÑEZ MATADAMAS ROSALBA GUADALUPE                     IAMR6003025F                                                                                                                                000000                                                                                                                                                        
30001010010000000000000-300003000052567805753927971387            GOMEZ ROMERO BLANCA OLIVA                              GORB610315E3                                                                                                                                000000                                                                                                                                                        
30001010010000000000000-300003000052567803855573991388            CASTELLANOS AZCOYTIA MA DE LA SOLEDAD DO               CAAS620329MP                                                                                                                                000000                                                                                                                                                        
30001010010000000000000-300003000052567808545631911390            CRUZ VIGIL IRENE                                       CUVI561020FZ                                                                                                                                000000                                                                                                                                                        
30001010010000000000000-300003000052567803646569981391            ARANGO GARCIA LEONOR                                   AAGL54051091                                                                                                                                000000                                                                                                                                                        
30001010010000000000000-300003000052567803646570951392            SUAREZ DULCE MARIA                                     SUDU510912MV                                                                                                                                000000                                                                                                                                                        
30001010010000000000000-300003000052567803646571941393            GARCIA MATIAS LORENZA                                  GAML5708109X                                                                                                                                000000                                                                                                                                                        
30001010010000000000000-300003000052567802119641991394            BUSTAMANTE RODRIGUEZ ILDA                              BURI610215CU                                                                                                                                000000                                                                                                                                                        
30001010010000000000000-300003000052567800926524911395            CASTELLANOS CARRASCO SARA                              CACS6208318L                                                                                                                                000000                                                                                                                                                        
30001010010000000000000-300003000052567819081006911400            JUAREZ MIJANGOS ELVIA FRANCISCA                        JUME581121TP                                                                                                                                000000                                                                                                                                                        
30001010010000000000000-300003000052567820188077951401            CANSECO AVELINO ROSAURA                                CAAR601030KN                                                                                                                                000000                                                                                                                                                        
30001010010000000000000-300003000052567803855537941402            VILLANUEVA ROBLEDO VICTORINA LUCERO                    VIRV6401227E                                                                                                                                000000                                                                                                                                                        
30001010010000000000000-300003000052567802125869911403            BARROSO LIMON GRACIELA                                 BALG490712S1                                                                                                                                000000                                                                                                                                                        
30001010010000000000000-300003000052567803855540991406            HERNANDEZ MENDOZA EVANGELINA                           HEME60121923                                                                                                                                000000                                                                                                                                                        
30001010010000000000000-300003000052567804260000941407            GARCIA OCHOA BEATRIZ EUGENIA                           GAOB570527G7                                                                                                                                000000                                                                                                                                                        
30001010010000000000000-300003000052567804259998901408            ANTONIO VELASCO ISABEL                                 AOVI64070476                                                                                                                                000000                                                                                                                                                        
30001010010000000000000-300003000052567804634944991411            TRUJILLO SANCHEZ GLORIA ADRIANA                        TUSG5003057P                                                                                                                                000000                                                                                                                                                        
30001010010000000000000-300003000052567804634893901412            ROMERO VERA MARTHA                                     ROVM670606FV                                                                                                                                000000                                                                                                                                                        
30001010010000000000000-300003000052567804634894991413            PEREZ SANTIAGO MIREYA                                  PESM55031943                                                                                                                                000000                                                                                                                                                        
30001010010000000000000-300003000052567809176004931414            HERNANDEZ BAUTISTA MARIA INES                          HEBI541116NI                                                                                                                                000000                                                                                                                                                        
30001010010000000000000-300003000052567804314419941415            AZCONA LOPEZ ISABEL                                    AOLI60051667                                                                                                                                000000                                                                                                                                                        
30001010010000000000000-300003000052567804565356961418            SANTIAGO CALDERON AIDA                                 SACA670201UK                                                                                                                                000000                                                                                                                                                        
30001010010000000000000-300003000052567804565376921422            JUAREZ VALENCIA MARCELINA GREGORIA                     JUVM560426IY                                                                                                                                000000                                                                                                                                                        
30001010010000000000000-300003000052567804565382941428            PEREZ MARIA EUGENIA SONIA                              PEEU6507218K                                                                                                                                000000                                                                                                                                                        
30001010010000000000000-300003000052567804565381951429            CURIEL HERNANDEZ AQUILINA                              CUHA530129Q8                                                                                                                                000000                                                                                                                                                        
30001010010000000000000-300003000052567804565385911430            CANTON BARRITA MARTHA LULU                             CABM64052672                                                                                                                                000000                                                                                                                                                        
30001010010000000000000-300003000052567804565380961431            GUTIERREZ HERNANDEZ MARIA DE LA LUZ                    GUHL610308BE                                                                                                                                000000                                                                                                                                                        
30001010010000000000000-300003000052567809946134921432            MULATO DOMINGUEZ YOLANDA                               MUDY5906129C                                                                                                                                000000                                                                                                                                                        
30001010010000000000000-300003000052567804565378901433            RAMOS HERNANDEZ ISABEL PATRICIA                        RAHI6511106F                                                                                                                                000000                                                                                                                                                        
30001010010000000000000-300003000052567804565423951434            LOPEZ BRAVO SERAFINA                                   LOBS591125G5                                                                                                                                000000                                                                                                                                                        
30001010010000000000000-300003000052567804565472951435            PEREZ AQUINO CANDELARIA                                PEAC6202024N                                                                                                                                000000                                                                                                                                                        
30001010010000000000000-300003000052567812486466921439            MARISCAL CID ISABEL CRISTINA                           MAIS600323PI                                                                                                                                000000                                                                                                                                                        
30001010010000000000000-300003000052567804565525921440            RUIZ ROBLES ROSA LIVIA                                 RURR631121IK                                                                                                                                000000                                                                                                                                                        
30001010010000000000000-300003000052567805794546921444            CRUZ JAVIER FLORENTINA                                 CUJF630501CM                                                                                                                                000000                                                                                                                                                        
30001010010000000000000-300003000052567805794543951445            SANDOVAL GONZALEZ MANUELA GRACIELA                     SAGM5401019R                                                                                                                                000000                                                                                                                                                        
30001010010000000000000-300003000052567805794582971446            SANTOS GARCIA ALISEA ALICIA                            SAGE500614IM                                                                                                                                000000                                                                                                                                                        
30001010010000000000000-300003000052567805794550951447            CRUZ GARCIA FLORENCIA                                  CUGF601027RG                                                                                                                                000000                                                                                                                                                        
30001010010000000000000-300003000052567814470913931449            PEREZ GARCIA ROSALIA                                   PEGR590904                                                                                                                                  000000                                                                                                                                                        
30001010010000000000000-300003000052567805667110961452            ZAVALA SANCHEZ MIRNA ROSA                              ZASM54012039                                                                                                                                000000                                                                                                                                                        
30001010010000000000000-300003000052567860143784951454            ALTAMIRANO RAMIREZ ROSA                                AARR520831B4                                                                                                                                000000                                                                                                                                                        
30001010010000000000000-300003000052567805794542961457            NAVARRO MARTINEZ CRISPINA GUADALUPE                    NAMC641205LU                                                                                                                                000000                                                                                                                                                        
30001010010000000000000-300003000052567811329069961460            HERNANDEZ PEREZ MAGDALENA                              HEPM5805228D                                                                                                                                000000                                                                                                                                                        
30001010010000000000000-300003000052567814470805941461            MARTINEZ CARMONA MAGDALENA                             MACM6105264A                                                                                                                                000000                                                                                                                                                        
30001010010000000000000-300003000052567805794547911463            HERNANDEZ PEREZ ANA MARIA                              HEPA621108AI                                                                                                                                000000                                                                                                                                                        
30001010010000000000000-300003000052567805794584951466            NUÑEZ TRUJILLO ANGELICA                                NUTA640412TZ                                                                                                                                000000                                                                                                                                                        
30001010010000000000000-300003000052567805794562911468            SOSA ALONZO ANGELICA                                   SOAA65112117                                                                                                                                000000                                                                                                                                                        
30001010010000000000000-300003000052567805794563901470            CRUZ MENDOZA ALMA MICAELA                              CUMA630521PF                                                                                                                                000000                                                                                                                                                        
30001010010000000000000-300003000052567805794569941472            CRUZ JIMENEZ BERTHA                                    CUJB620610RA                                                                                                                                000000                                                                                                                                                        
30001010010000000000000-300003000052567805794567961473            NIÑO SERNA NELIDA CAROLINA                             NISN6102053S                                                                                                                                000000                                                                                                                                                        
30001010010000000000000-300003000052567805794568951474            BAZAN SANTIAGO JOSEFINA ISABEL                         BASJ6003193X                                                                                                                                000000                                                                                                                                                        
30001010010000000000000-300003000052567805794558971475            JACOB MATEOS EMMA                                      JAME590805Q4                                                                                                                                000000                                                                                                                                                        
30001010010000000000000-300003000052567805794557981476            GARCIA MARTINEZ ALICIA                                 GAMA561203JD                                                                                                                                000000                                                                                                                                                        
30001010010000000000000-300003000052567805794572991478            ZAYAS RANGEL LETICIA YOLANDA                           ZARL6209038H                                                                                                                                000000                                                                                                                                                        
30001010010000000000000-300003000052567810845069921481            RAMOS MENDEZ ABIGAIL                                   RAMA6404014N                                                                                                                                000000                                                                                                                                                        
30001010010000000000000-300003000052567805794585941482            DAVILA NAVARRO EUGENIA ISABEL                          DANE560707EH                                                                                                                                000000                                                                                                                                                        
30001010010000000000000-300003000052567805794581981483            HERNANDEZ HERNANDEZ ROCIO CLEMENTINA                   HEHR631123MS                                                                                                                                000000                                                                                                                                                        
30001010010000000000000-300003000052567805794587921484            SARABIA LLORENTE MARIA ELENA ARMIDA                    SALE551016QB                                                                                                                                000000                                                                                                                                                        
30001010010000000000000-300003000052567805794579921485            MARTINEZ NUÑEZ MARGARITA ALICIA                        MANM611023I8                                                                                                                                000000                                                                                                                                                        
30001010010000000000000-300003000052567812486302901488            LOPEZ SANCHEZ ELVIA MAGDALENA                          LOSE64042688                                                                                                                                000000                                                                                                                                                        
30001010010000000000000-300003000052567806099674991489            ARELLANES MEIXUEIRO JULIA SOLEDAD                      AEMJ6308107F                                                                                                                                000000                                                                                                                                                        
30001010010000000000000-300003000052567806099668971490            HEREDIA MARTINEZ CRUZ JOSEFINA                         HEMC540503NX                                                                                                                                000000                                                                                                                                                        
30001010010000000000000-300003000052567806099663921491            MARTINEZ SANTOS GRACIELA                               MASG67060274                                                                                                                                000000                                                                                                                                                        
30001010010000000000000-300003000052567806099669961492            GARCIA LOPEZ GEMA                                      GALG660413LM                                                                                                                                000000                                                                                                                                                        
30001010010000000000000-300003000052567805794566971493            HERNANDEZ LOPEZ ANA                                    HELA560901CW                                                                                                                                000000                                                                                                                                                        
30001010010000000000000-300003000052567806099664911494            ZARATE LOPEZ MAGDALENA                                 ZALM571023A1                                                                                                                                000000                                                                                                                                                        
30001010010000000000000-300003000052567820894338931500            CASTELLANOS MARTINEZ ISABEL                            CAMI6407029B                                                                                                                                000000                                                                                                                                                        
30001010010000000000000-300003000052567806814763931503            NIÑO TORRES ESPERANZA                                  NITE530314B1                                                                                                                                000000                                                                                                                                                        
30001010010000000000000-300003000052567806814758901505            PEREZ VELASCO SILVIA                                   PEVS561103CW                                                                                                                                000000                                                                                                                                                        
30001010010000000000000-300003000052567806814752961511            DIAZ RAMIREZ LUCIA                                     DIRL56062592                                                                                                                                000000                                                                                                                                                        
30001010010000000000000-300003000052567806814764921512            LUCIANO DIAZ ELSA                                      LUDE660312A1                                                                                                                                000000                                                                                                                                                        
30001010010000000000000-300003000052567806814770941518            ACEVEDO JIMENEZ PETRA GUADALUPE                        AEJP551204RB                                                                                                                                000000                                                                                                                                                        
30001010010000000000000-300003000052567808282416921519            CAMPOS JIMENEZ GUADALUPE                               CAJG510703S6                                                                                                                                000000                                                                                                                                                        
30001010010000000000000-300003000052567810302709901520            MEJIA CORONEL ZOILA                                    MECZ590730CC                                                                                                                                000000                                                                                                                                                        
30001010010000000000000-300003000052567821464763981523            CAMPA MIRANDA MARIA EUGENIA                            CAME471016N8                                                                                                                                000000                                                                                                                                                        
30001010010000000000000-300003000052567811100215941526            ESCAMILLA LEON IMELDA                                  EALI580513MG                                                                                                                                000000                                                                                                                                                        
30001010010000000000000-300003000052567806814781911529            GONZALEZ BARRIENTOS MARIA MAGADALENA                   GOBM650823SZ                                                                                                                                000000                                                                                                                                                        
30001010010000000000000-300003000052567806814780921530            RAMIREZ MARTINEZ JUANA JOSEFINA                        RAMJ590310H6                                                                                                                                000000                                                                                                                                                        
30001010010000000000000-300003000052567814374616971533            GARCIA MERINO MAURA                                    GAMM57021346                                                                                                                                000000                                                                                                                                                        
30001010010000000000000-300003000052567806814788941534            PEÑA GARCIA MARIA CRISPINA                             PEGC53120544                                                                                                                                000000                                                                                                                                                        
30001010010000000000000-300003000052567807107135921535            RAMIREZ FRANCO BERTHA MARILU                           RAFB6209096C                                                                                                                                000000                                                                                                                                                        
30001010010000000000000-300003000052567807107132951549            CARREÑO VILLALOBOS ISABEL AGUSTINA                     CAVI600227AG                                                                                                                                000000                                                                                                                                                        
30001010010000000000000-300003000052567806814891981550            SANTIBAÑEZ ARELLANES MICAELA GUDELIA                   SAAM540819NF                                                                                                                                000000                                                                                                                                                        
30001010010000000000000-300003000052567806397789991556            CORTES GUZMAN SALUSTIA                                 COGS540914S3                                                                                                                                000000                                                                                                                                                        
30001010010000000000000-300003000052567806814898911566            GOMEZ OROZCO LORENA AMALIA                             GOOL640716NA                                                                                                                                000000                                                                                                                                                        
30001010010000000000000-300003000052567806814896931567            GUZMAN CHAVEZ MARIA ISMAELA                            GUCI600617CU                                                                                                                                000000                                                                                                                                                        
30001010010000000000000-300003000052567806814920931569            MENDOZA BLAS LEONILA                                   MEBL670901T5                                                                                                                                000000                                                                                                                                                        
30001010010000000000000-300003000052567806814921921570            LOPEZ CRESPO MACRINA                                   LOCM660530LV                                                                                                                                000000                                                                                                                                                        
30001010010000000000000-300003000052567806814923901572            CRUZ RUIZ DELFINA                                      CURD641208R9                                                                                                                                000000                                                                                                                                                        
30001010010000000000000-300003000052567806814924991573            CRUZ RAMOS EMILIANA ASELA                              CURE371206T5                                                                                                                                000000                                                                                                                                                        
30001010010000000000000-300003000052567806814933981574            VENTURA MESINAS JUANA                                  VEMJ6405162E                                                                                                                                000000                                                                                                                                                        
30001010010000000000000-300003000052567806814931901576            NAVARRO VASQUEZ MAURA GAUDENCIA                        NAVM6407155H                                                                                                                                000000                                                                                                                                                        
30001010010000000000000-300003000052567806814892971577            LOPEZ JIMENEZ INES                                     LOJI600420HH                                                                                                                                000000                                                                                                                                                        
30001010010000000000000-300003000052567808213355901579            MELCHOR MENDEZ CLARA                                   MEMC6708124I                                                                                                                                000000                                                                                                                                                        
30001010010000000000000-300003000052567807326938971580            AGUILAR OLVERA ELIZA                                   AUOE650819LD                                                                                                                                000000                                                                                                                                                        
30001010010000000000000-300003000052567807326936991582            VASQUEZ CRUZ HILDA COLUMBA                             VACH610917JW                                                                                                                                000000                                                                                                                                                        
30001010010000000000000-300003000052567807326935901583            GARCIA RUIZ ELDA                                       GARE650628QG                                                                                                                                000000                                                                                                                                                        
30001010010000000000000-300003000052567807326933921584            HERNANDEZ GARCIA MARIA DEL CARMEN                      HEGC600119UT                                                                                                                                000000                                                                                                                                                        
30001010010000000000000-300003000052567807326931941587            HERNANDEZ GOMEZ LUZ MARIA                              HEGL640220NS                                                                                                                                000000                                                                                                                                                        
30001010010000000000000-300003000052567807326930951588            PAZ VALDEZ IRMA PATRICIA                               PAVI6505023Y                                                                                                                                000000                                                                                                                                                        
30001010010000000000000-300003000052567807326901901593            ZIGA SALINAS CRUZ                                      ZISC5705032F                                                                                                                                000000                                                                                                                                                        
30001010010000000000000-300003000052567807326898951596            LUIS MALDONADO MARIA ALEJANDRINA                       LUMA551126E5                                                                                                                                000000                                                                                                                                                        
30001010010000000000000-300003000052567807326941921599            BAUTISTA PEREZ MARTHA OLGA                             BAPM6311038Q                                                                                                                                000000                                                                                                                                                        
30001010010000000000000-300003000052567807326895981600            BARROSO LOPEZ LEONOR TRINIDAD                          BALL590510KM                                                                                                                                000000                                                                                                                                                        
30001010010000000000000-300003000052567807326894991601            MELCHOR MENDEZ BERNARDA                                MEMB630820                                                                                                                                  000000                                                                                                                                                        
30001010010000000000000-300003000052567807326942911602            RAMOS HERNANDEZ FAUSTA                                 RAHF570906K1                                                                                                                                000000                                                                                                                                                        
30001010010000000000000-300003000052567807326943901603            CORTES JARQUIN INES                                    COJX570121QD                                                                                                                                000000                                                                                                                                                        
30001010010000000000000-300003000052567807326945981606            VASCONCELOS CORTES MARTHA                              VACM4509285J                                                                                                                                000000                                                                                                                                                        
30001010010000000000000-300003000052567807326946971607            CRUZ CABALLERO MARTHA ESTELA                           CUCM491018AB                                                                                                                                000000                                                                                                                                                        
30001010010000000000000-300003000052567810845062991609            MARTINEZ TREJO YOLANDA WILMA                           MATY570520UD                                                                                                                                000000                                                                                                                                                        
30001010010000000000000-300003000052567817831907911610            CHANTEL ZARATE VICTORINA                               CAZV5011082Q                                                                                                                                000000                                                                                                                                                        
30001010010000000000000-300003000052567807326950901612            LOPEZ JUAREZ RAFAELA OLGA                              LOJR631025SP                                                                                                                                000000                                                                                                                                                        
30001010010000000000000-300003000052567807326906951621            REAL GARCIA IRMA                                       REGI591223EF                                                                                                                                000000                                                                                                                                                        
30001010010000000000000-300003000052567807326953971623            OLIVERA HERNANDEZ LETICIA SOCORRO                      OIHL540418BI                                                                                                                                000000                                                                                                                                                        
30001010010000000000000-300003000052567807326916931627            RIOS MARTINEZ MARIA GLORIA                             RIMG6108056G                                                                                                                                000000                                                                                                                                                        
30001010010000000000000-300003000052567807327020941634            ROBLES ESTEVA FELIPA ROSA                              ROEF6412262L                                                                                                                                000000                                                                                                                                                        
30001010010000000000000-300003000052567807327021931635            VALENCIA BURGOA ALMA ASUNCION                          VABA580815U1                                                                                                                                000000                                                                                                                                                        
30001010010000000000000-300003000052567807327025991639            MORAN SACHIÑAS PORFIRIA                                MOSP6109165K                                                                                                                                000000                                                                                                                                                        
30001010010000000000000-300003000052567810845068931640            LUNA CAMPOS MARIA ESTHER                               LUCE640821HT                                                                                                                                000000                                                                                                                                                        
30001010010000000000000-300003000052567807327027971641            FRIAS PEREZ MARICRUZ                                   FIPM670515C5                                                                                                                                000000                                                                                                                                                        
30001010010000000000000-300003000052567821465399971642            CRUZ GARCIA EMILIA MARIA                               CUGE5609211T                                                                                                                                000000                                                                                                                                                        
30001010010000000000000-300003000052567807327030921644            ESTEVA HERNANDEZ MARIA SOLEDAD                         EEHS621021FC                                                                                                                                000000                                                                                                                                                        
30001010010000000000000-300003000052567807327032901646            CHAVEZ LOPEZ MARIA ESTELA                              CALE52110219                                                                                                                                000000                                                                                                                                                        
30001010010000000000000-300003000052567807327041991647            REJINO LOZANO MICAELA                                  RELM580410GX                                                                                                                                000000                                                                                                                                                        
30001010010000000000000-300003000052567808097651981651            RUIZ FLORES EUGENIA                                    RUFE38122523                                                                                                                                000000                                                                                                                                                        
30001010010000000000000-300003000052567807327048921657            RIVERA CRUZ IDALIA                                     RICI610917IQ                                                                                                                                000000                                                                                                                                                        
30001010010000000000000-300003000052567807327047931658            ORTIZ RAMIREZ YURI ARACELI                             OIRY630205PU                                                                                                                                000000                                                                                                                                                        
30001010010000000000000-300003000052567806913817991659            SALGADO AGUILAR ROSARIO DEL CARMEN                     SAAR65050356                                                                                                                                000000                                                                                                                                                        
30001010010000000000000-300003000052567806913851961661            CRUZ CENOBIO INES ARACELIS                             CUCI640121J4                                                                                                                                000000                                                                                                                                                        
30001010010000000000000-300003000052567808260256911671            ORTIZ SILVA FRANCISCA VIOLETA                          OISF541020DH                                                                                                                                000000                                                                                                                                                        
30001010010000000000000-300003000052567808888279921672            JIMENEZ QUINTERO BLANCA ESTELA                         JIQB570617T3                                                                                                                                000000                                                                                                                                                        
30001010010000000000000-300003000052567808888278931673            ESPINOZA BOURGUET SOLEDAD                              EIBS461218J6                                                                                                                                000000                                                                                                                                                        
30001010010000000000000-300003000052567808888272991674            MARTINEZ RODRIGUEZ VERONICA CELIA                      MARV651018NG                                                                                                                                000000                                                                                                                                                        
30001010010000000000000-300003000052567808888274971678            GUTIERREZ SANCHEZ RAQUEL                               GUSR5907181X                                                                                                                                000000                                                                                                                                                        
30001010010000000000000-300003000052567808888275961679            CONTRERAS ROSA INES                                    CORO580123H5                                                                                                                                000000                                                                                                                                                        
30001010010000000000000-300003000052567808888456971683            ESPINOZA JIMENEZ CONCEPCION                            EIJC640828BD                                                                                                                                000000                                                                                                                                                        
30001010010000000000000-300003000052567808888454991685            CHIÑAS ALONSO MARIA DE JESUS                           CIAJ591015KG                                                                                                                                000000                                                                                                                                                        
30001010010000000000000-300003000052567808888467941686            BRAVO RODRIGUEZ ELVIRA                                 BARE631011M5                                                                                                                                000000                                                                                                                                                        
30001010010000000000000-300003000052567808888389991688            VELASCO SANCHEZ MARTHA ROCIO                           VESM610514DF                                                                                                                                000000                                                                                                                                                        
30001010010000000000000-300003000052567808888390961689            LOPEZ AQUINO LIDIA ANGELA                              LOAL6108034F                                                                                                                                000000                                                                                                                                                        
30001010010000000000000-300003000052567808888391951692            JIMENEZ JARQUIN SOFIA OLGA                             JIJS500409EM                                                                                                                                000000                                                                                                                                                        
30001010010000000000000-300003000052567808888464971693            RUIZ AVENDANO JUANA CONCEPCION                         RUAJ631208QQ                                                                                                                                000000                                                                                                                                                        
30001010010000000000000-300003000052567808888463981694            LOPEZ SIBAJA ANA MARIA                                 LOSA660507NI                                                                                                                                000000                                                                                                                                                        
30001010010000000000000-300003000052567808888465961695            CUEVAS VELASQUEZ CONCEPCION JUANA                      CUVC6005265P                                                                                                                                000000                                                                                                                                                        
30001010010000000000000-300003000052567808888457961696            GALINDO REYES MARIA TERESA                             GART6410157P                                                                                                                                000000                                                                                                                                                        
30001010010000000000000-300003000052567808888458951697            PEREZ MATUS AMELIA                                     PEMA541006Q8                                                                                                                                000000                                                                                                                                                        
30001010010000000000000-300003000052567808888459941699            SANTIAGO MARTINEZ GUADALUPE                            SAMG670812IP                                                                                                                                000000                                                                                                                                                        
30001010010000000000000-300003000052567808888392941700            PEREZ ARAGON GUADALUPE                                 PEAG631212R2                                                                                                                                000000                                                                                                                                                        
30001010010000000000000-300003000052567808888500931707            VILLALOBOS MECINAS RUBICELIA                           VIMR600502AC                                                                                                                                000000                                                                                                                                                        
30001010010000000000000-300003000052567808888503901709            LOPEZ VASQUEZ BELEN ROSA                               LOVB610201D2                                                                                                                                000000                                                                                                                                                        
30001010010000000000000-300003000052567808888347901710            ZARATE IGNACIO MARIA JULIANA RODOLFINA                 ZAIJ600406U1                                                                                                                                000000                                                                                                                                                        
30001010010000000000000-300003000052567808888349981711            ALVARADO RIOS EULALIA                                  AARE6402127F                                                                                                                                000000                                                                                                                                                        
30001010010000000000000-300003000052567808888506971714            VASQUEZ SANTIAGO PILAR                                 VASP601012S6                                                                                                                                000000                                                                                                                                                        
30001010010000000000000-300003000052567808888505981719            RAMIREZ MOLINA ELIZABETH                               RAME620413KT                                                                                                                                000000                                                                                                                                                        
30001010010000000000000-300003000052567808888494911721            REYES GONZALEZ MAURA                                   REGM59112224                                                                                                                                000000                                                                                                                                                        
30001010010000000000000-300003000052567808888346911729            RANGEL MARTINEZ NORMA ESTELA                           RAMN660814RC                                                                                                                                000000                                                                                                                                                        
30001010010000000000000-300003000052567808888348991731            SILVA QUIROZ MARTHA EUSTAQUIA                          SIQM480920PR                                                                                                                                000000                                                                                                                                                        
30001010010000000000000-300003000052567808888382961734            SANTOS VASQUEZ MISAELA CANDELARIA                      SAVM611130T2                                                                                                                                000000                                                                                                                                                        
