1000089909706201707270001OFICINA DE PENSIONES DEL ESTADO DE OJUBILADOS           15D01
210010000000017597945470100000000044110110143001377
3000101001000000000001724780030000525678153483969626              MARTINEZ JIMENEZ GERARDO                               MAJG370215QK7                                                                                                                               000000                                                                                                                                                        
30001010010000000000014591800300005256780579456192103             RAMIREZ GONZALEZ LUCINA                                RAGL390618NP3                                                                                                                               000000                                                                                                                                                        
30001010010000000000014866800300005256780426011497106             HEINZE RAMIREZ CARMEN ELENA                            HERC400331UFA                                                                                                                               000000                                                                                                                                                        
30001010010000000000014866800300005256786005056993147             PEREZ MARTINEZ ESTHER                                  PEME400121                                                                                                                                  000000                                                                                                                                                        
30001010010000000000016037600300005256781535331099176             GARCIA PADILLA SARA                                    GAPS450622CM8                                                                                                                               000000                                                                                                                                                        
30001010010000000000006465000300005256781287075290295             JIMENEZ ARAGON MAURA MARTHA                            JIAM471121CU2                                                                                                                               000000                                                                                                                                                        
30001010010000000000018638300300005256781535340397367             RAMIREZ GARCIA PEDRO                                   RAGP290229RN6                                                                                                                               000000                                                                                                                                                        
30001010010000000000018711000300005256781535340694372             MARCIAL MARTINEZ RUBEN                                 MAMR410701VB8                                                                                                                               000000                                                                                                                                                        
30001010010000000000012259100300005256781918904694400             MONROY MEXICANO JUSTO GREGORIO                         MOMJ410301                                                                                                                                  000000                                                                                                                                                        
30001010010000000000014766800300005256780681489495417             ORTIZ CIRIGO ARTURO GUILLERMO                          OICA501215RP3                                                                                                                               000000                                                                                                                                                        
30001010010000000000017247800300005256780579455996422             CANSECO GARCIA JUVENCIO                                CAGJ390601914                                                                                                                               000000                                                                                                                                                        
30001010010000000000011056400300005256780385526196423             CASTILLO ORTIZ MANUEL FRANCISCO                        CAOM490529E8A                                                                                                                               000000                                                                                                                                                        
30001010010000000000015082800300005256788152305496436             RAMIREZ FUENTES GUADALUPE                              RAFG540804HP3                                                                                                                               000000                                                                                                                                                        
30001010010000000000014866800300005256781535346295455             GUTIERREZ MARTINEZ CATALINA                            GUMC470309E62                                                                                                                               000000                                                                                                                                                        
30001010010000000000013147400300005256780337096595461             RUIZ MOLINA ABEL                                       RUMA510805CM8                                                                                                                               000000                                                                                                                                                        
30001010010000000000014766800300005256781535346790462             ZAVALA GONZALEZ RAQUEL                                 ZAGR331030HP1                                                                                                                               000000                                                                                                                                                        
30001010010000000000011329400300005256781535347590472             CARIÑO LEON CRISOFORO                                  CALC410526                                                                                                                                  000000                                                                                                                                                        
30001010010000000000013142400300005256781535362797518             ZARATE ORTIZ ALBERTO                                   ZAOA3708062Z3                                                                                                                               000000                                                                                                                                                        
30001010010000000000017247800300005256781535363092521             PAZ PAZ SANTIAGO ARTEMIO                               PAPS480725489                                                                                                                               000000                                                                                                                                                        
30001010010000000000017247800300005256781535358894529             DIAZ CASTAÑEDA JOSE RICARDO                            DICR310115                                                                                                                                  000000                                                                                                                                                        
30001010010000000000014896800300005256781535359397536             GASPAR MORALES CARLOS                                  GAMC4506258A4                                                                                                                               000000                                                                                                                                                        
30001010010000000000010831570300005256780337096892569             PAREDES AYALA MA. ISABEL                               PAAI590714                                                                                                                                  000000                                                                                                                                                        
30001010010000000000006134000300005256781535353895597             ALDECO REYES GERARDO                                   AERG4109259Q4                                                                                                                               000000                                                                                                                                                        
30001010010000000000011136700300005256781535354992609             MIGUEL CRUZ ARTURO                                     MICA4902091M9                                                                                                                               000000                                                                                                                                                        
30001010010000000000014896800300005256781535355791623             TRINIDAD ALEGRIA PABLO                                 TIAP481113                                                                                                                                  000000                                                                                                                                                        
30001010010000000000014674800300005256780337103292641             CRUZ GOMEZ JUANA ELIA                                  CUGJ560127GY6                                                                                                                               000000                                                                                                                                                        
30001010010000000000017277800300005256781535350495683             LOYOLA BAUTISTA GONZALO                                LOBG4901175FA                                                                                                                               000000                                                                                                                                                        
30001010010000000000012812700300005256781535324094699             TRONCOZO VASQUEZ MARIA CRISTINA BETTY                  TOVC381121NC2                                                                                                                               000000                                                                                                                                                        
30001010010000000000009244250300005256780337095597700             GARCIA GUZMAN MARIA LUISA                              GAGL460825                                                                                                                                  000000                                                                                                                                                        
30001010010000000000010797900300005256781535324391703             HERNANDEZ ALONSO MARIO ANTONIO                         HEAM410117CX7                                                                                                                               000000                                                                                                                                                        
30001010010000000000017211100300005256780212569799716             GASCA ALONSO OCTAVIO                                   GAAO430322L19                                                                                                                               000000                                                                                                                                                        
30001010010000000000014419100300005256780456545190728             RAMIREZ RAMOS LAUREANO                                 RARL480704359                                                                                                                               000000                                                                                                                                                        
30001010010000000000017666900300005256780579457794730             MENDEZ LOPEZ FELIX                                     MEFE440115AJ9                                                                                                                               000000                                                                                                                                                        
30001010010000000000008466410300005256780575373896756             HERNANDEZ SANTIAGO JUAN MAXIMINO                       HESJ540524AE0                                                                                                                               000000                                                                                                                                                        
30001010010000000000014419100300005256781577776797766             MIRANDA MATADAMAS FLORENTINO                           MIMF371016794                                                                                                                               000000                                                                                                                                                        
30001010010000000000016905100300005256781577778595790             VICTORIA LOPEZ VALENTE                                 VILV350521144                                                                                                                               000000                                                                                                                                                        
30001010010000000000014519100300005256780337090895799             MARTINEZ REYES FELIPE FLORENCIO                        MARF491015                                                                                                                                  000000                                                                                                                                                        
30001010010000000000017354300300005256782260829091811             LOPEZ Y AQUINO ANA TERESA                              LOAA510726ST8                                                                                                                               000000                                                                                                                                                        
30001010010000000000017314730300005256780925078898818             CERVANTES RODRIGUEZ MARIA DE LOURDES                   CERL580324LS6                                                                                                                               000000                                                                                                                                                        
30001010010000000000013019900300005256781577780997820             MARTINEZ PEREZ ODILON                                  MAPO550101HA3                                                                                                                               000000                                                                                                                                                        
30001010010000000000010378900300005256780401683393834             LOPEZ MARTINEZ WILFRIDO                                LOMW4205263T1                                                                                                                               000000                                                                                                                                                        
30001010010000000000006878770300005256781577782399835             GONZALEZ REYES JUANA EMILIANA                          GORJ570702UW4                                                                                                                               000000                                                                                                                                                        
30001010010000000000001950470300005256780337090796839             DE LA BARRERA ESCAMILLA SILVIA                         BAES490403UZ7                                                                                                                               000000                                                                                                                                                        
30001010010000000000012587500300005256780337095399851             VELASQUEZ CERVANTES REYNA ZOILA                        VECR600528574                                                                                                                               000000                                                                                                                                                        
30001010010000000000015977200300005256780357891594887             MORA LICONA MARTHA ELBA                                MOLM6111306C8                                                                                                                               000000                                                                                                                                                        
30001010010000000000013997700300005256780609966590904             LUIS MALDONADO YOLANDA LEONOR                          LUMY521217HJ2                                                                                                                               000000                                                                                                                                                        
30001010010000000000009858570300005256780839524292907             RIOS DE LA ROSA ANA MARIA                              RIRA600610AH8                                                                                                                               000000                                                                                                                                                        
30001010010000000000013725100300005256781577789493918             SOSA ROJAS GLORIA CATALINA                             SORG550430KIA                                                                                                                               000000                                                                                                                                                        
30001010010000000000001690890300005256781050245096923             ESTEVA PEREZ ANA HORTENCIA                             EEPA520726GK7                                                                                                                               000000                                                                                                                                                        
30001010010000000000012916400300005256780789493290960             VELASCO ALTAMIRANO LIDIA MINERVA                       VEAL520219SM6                                                                                                                               000000                                                                                                                                                        
30001010010000000000017962900300005256780299007994964             CASTELLANOS SORIANO SANTA JOSEFINA                     CASS621005NB5                                                                                                                               000000                                                                                                                                                        
30001010010000000000013530570300005256780385553695988             BRENA LOAEZA MARIA DE JESUS                            BELJ440626HDA                                                                                                                               000000                                                                                                                                                        
30001010010000000000009038100300005256781577795292991             CRUZ AYUZO SERAPIA HERACLIA                            CUAS5705178W6                                                                                                                               000000                                                                                                                                                        
300010100100000000000098664403000052567805794554911047            ALDECO CRUZ MARIA DE LOS ANGELES                       AECA581207                                                                                                                                  000000                                                                                                                                                        
300010100100000000000144191003000052567803855260971080            MAURICIO MOTA DOLORES                                  MAMD640320ND3                                                                                                                               000000                                                                                                                                                        
300010100100000000000165524003000052567804565450911138            LEYVA ROSALES BERTHA CONSUELO                          LERB5209171IA                                                                                                                               000000                                                                                                                                                        
300010100100000000000186682003000052567815773255951139            ROBLES BARRON RAMON BENITO                             ROBR480321K91                                                                                                                               000000                                                                                                                                                        
300010100100000000000145191003000052567805584847931140            QUINTAS MANTECON LUCILA NOEMI                          QUML351031I68                                                                                                                               000000                                                                                                                                                        
300010100100000000000113744003000052567818584224911162            NUCAMENDI SERRANO RAMIRO                               NUSR460517                                                                                                                                  000000                                                                                                                                                        
300010100100000000000144191003000052567815773287971163            FABIAN CHAVEZ MANUEL                                   FACM560101LA5                                                                                                                               000000                                                                                                                                                        
300010100100000000000170320003000052567815773296961172            AGUILAR BARROSO ALMA OFELIA                            AUBA640402AF8                                                                                                                               000000                                                                                                                                                        
300010100100000000000171802003000052567805016924921180            JIMENEZ ESPINA FLORINA DEL SOCORRO                     JIEF5705018D5                                                                                                                               000000                                                                                                                                                        
300010100100000000000093993003000052567804259903941223            LINALDI HERNANDEZ LIDIA                                LIHL590816LE6                                                                                                                               000000                                                                                                                                                        
300010100100000000000122047603000052567815773378971235            GONZALEZ LOPEZ DELFINO                                 GOLD511224GH7                                                                                                                               000000                                                                                                                                                        
300010100100000000000169301003000052567812994525941239            RICARDEZ TAMES BLANCA AZUCENA                          RITB4102104K0                                                                                                                               000000                                                                                                                                                        
300010100100000000000069984203000052567815773385981245            ZARATE CORTES FORTUNATO ALFONSO                        ZACF541014JM2                                                                                                                               000000                                                                                                                                                        
300010100100000000000179245003000052567803370954981252            MARTINEZ SUMANO ARTEMIA GUADALUPE                      MASA611224HR6                                                                                                                               000000                                                                                                                                                        
300010100100000000000172578003000052567815773439941284            HERRERA MARTINEZ ROSA                                  HEMR280830IJ7                                                                                                                               000000                                                                                                                                                        
300010100100000000000203728003000052567802224039971292            SANCHEZ FRANCISCO ANSELMO ANTONINO                     SAFA450421HM8                                                                                                                               000000                                                                                                                                                        
300010100100000000000152565003000052567802224040941293            SAUCEDO ROJAS MARTIN                                   SARM5307281FA                                                                                                                               000000                                                                                                                                                        
300010100100000000000178329003000052567802224041931294            JUAREZ LLAGUNO RUBEN                                   JULR581110FA9                                                                                                                               000000                                                                                                                                                        
300010100100000000000179329003000052567802224042921295            LOPEZ TORRES PEDRO                                     LOTP470629TN1                                                                                                                               000000                                                                                                                                                        
300010100100000000000125875003000052567802224044901296            AQUINO PEREZ ZOILA DIONICIA                            AUPZ601021H45                                                                                                                               000000                                                                                                                                                        
300010100100000000000091375003000052567802224043911297            MENDEZ VICTORIA MARIA DE LOURDEZ BEATRIZ               MEVL6110084TA                                                                                                                               000000                                                                                                                                                        
300010100100000000000179245003000052567802224045991298            ARRAZOLA MONTES MARCELA CARMELINA                      AAMM590116C96                                                                                                                               000000                                                                                                                                                        
300010100100000000000145191003000052567802224046981299            ZARATE VASQUEZ CONSTANTINO RAFAEL                      ZAVC570120K14                                                                                                                               000000                                                                                                                                                        
300010100100000000000178329003000052567802224047971300            ROBLES ANA MARIA                                       ROAN6202225L5                                                                                                                               000000                                                                                                                                                        
300010100100000000000205378303000052567802224048961301            SANTOS GARCIA MARIA EUGENIA                            SAGE550919TKA                                                                                                                               000000                                                                                                                                                        
300010100100000000000098726603000052567808547367971302            HERNANDEZ HERNANDEZ PEDRO                              HEHP560116UI7                                                                                                                               000000                                                                                                                                                        
300010100100000000000163787003000052567802224050911303            ARAGON ANTONIO CASILDO                                 AAAC380409FA8                                                                                                                               000000                                                                                                                                                        
300010100100000000000095023003000052567802224096971304            CARDENAS CIPRIANO MARCELINO                            CACI480711DS0                                                                                                                               000000                                                                                                                                                        
300010100100000000000144191003000052567802224052991305            REYES ORDAZ FRANCISCO PEDRO                            REOF6206046H2                                                                                                                               000000                                                                                                                                                        
300010100100000000000206163003000052567802224053981306            LAZARO HERNANDEZ CECILIA                               LAHC5912025BA                                                                                                                               000000                                                                                                                                                        
300010100100000000000173493003000052567802224076911307            GARCIA ENRIQUEZ MARTINA BATILDE                        GAEM570130G40                                                                                                                               000000                                                                                                                                                        
300010100100000000000148672003000052567802224054971308            BENITEZ CARBALLIDO GEMMA                               BECG640411IG6                                                                                                                               000000                                                                                                                                                        
300010100100000000000140862003000052567802224055961309            RAMIREZ MIGUEL MIGUEL                                  RAMM5810105H6                                                                                                                               000000                                                                                                                                                        
300010100100000000000214935003000052567802224056951310            LOPEZ ANTONIO ROSARIO PILAR                            LOAR581005FU4                                                                                                                               000000                                                                                                                                                        
300010100100000000000179245003000052567802224057941312            RAMIREZ GUZMAN CRISTINA GENOVEVA                       RAGC571227IW9                                                                                                                               000000                                                                                                                                                        
300010100100000000000190612003000052567802224058931313            VARGAS ROBLES NICOLAS                                  VARN5104223V1                                                                                                                               000000                                                                                                                                                        
300010100100000000000173493003000052567802224059921314            CARMONA REYES IRENE                                    CARI611020IX3                                                                                                                               000000                                                                                                                                                        
300010100100000000000210399003000052567802224060991315            SANCHEZ RIOS ROSA MARIA                                SARR620401VB8                                                                                                                               000000                                                                                                                                                        
300010100100000000000210399003000052567811709565981316            JIMENEZ LEON ISIDRA                                    JILI540515EG9                                                                                                                               000000                                                                                                                                                        
300010100100000000000127268003000052567802224061981317            MARQUEZ DAVILA JOSE                                    MADJ4801288D9                                                                                                                               000000                                                                                                                                                        
300010100100000000000152565003000052567802224063961318            ROBLES LOPEZ GILA                                      ROLG6504232I6                                                                                                                               000000                                                                                                                                                        
300010100100000000000157375003000052567802224064951319            MARTINEZ LOPEZ FROYLAN                                 MALF490227UC5                                                                                                                               000000                                                                                                                                                        
300010100100000000000086569003000052567802990082991320            LOPEZ HERAS GLORIA                                     LOHG600820DT2                                                                                                                               000000                                                                                                                                                        
300010100100000000000090275003000052567802990084971321            CRUZ LOPEZ FIDELINA                                    CULF650427RB6                                                                                                                               000000                                                                                                                                                        
300010100100000000000210399003000052567802990088931322            CORTES RIOS CATALINA MARGARITA                         CORC5712013UA                                                                                                                               000000                                                                                                                                                        
300010100100000000000171073003000052567802990089921323            CRUZ CRUZ MARGARITA                                    CUCM6505127D3                                                                                                                               000000                                                                                                                                                        
300010100100000000000151689003000052567812994513981324            RAMIREZ RUBIO MA ERNESTINA                             RARE6211073M4                                                                                                                               000000                                                                                                                                                        
300010100100000000000210399003000052567802990080911325            HERNANDEZ LORENZO CARMEN                               HELC550701QJ0                                                                                                                               000000                                                                                                                                                        
300010100100000000000131724003000052567802224122951326            MONTES ZAVALA FERNANDO EMILIO                          MOZF580522PG9                                                                                                                               000000                                                                                                                                                        
300010100100000000000170320003000052567802224123941327            CHAGOYA BERNAL MARIA ALEJANDRINA                       CABA581125KKA                                                                                                                               000000                                                                                                                                                        
300010100100000000000183269003000052567802224124931328            HERNANDEZ LUNA VIDAL                                   HELV4507106S5                                                                                                                               000000                                                                                                                                                        
300010100100000000000167821303000052567802224125921329            TORRES GARCIA ZINA ELIZABETH                           TOGZ510101750                                                                                                                               000000                                                                                                                                                        
300010100100000000000103039003000052567802224126911330            MORENO ARAGON HILARIA                                  MOAH470228PI7                                                                                                                               000000                                                                                                                                                        
300010100100000000000157375003000052567802224127901331            ROBLES BARRON GRACIELA LOURDES                         ROBG5004267E3                                                                                                                               000000                                                                                                                                                        
300010100100000000000149898003000052567802224128991332            MARTINEZ MARTINEZ MARICELA YOLANDA                     MAMM5305108D1                                                                                                                               000000                                                                                                                                                        
300010100100000000000169001003000052567802224129981333            ESCUDERO RODRIGUEZ IRENE                               EURI610201614                                                                                                                               000000                                                                                                                                                        
300010100100000000000145191003000052567802224130951334            LUIS SANTIAGO CRISTOBAL                                LUSC560821KX8                                                                                                                               000000                                                                                                                                                        
300010100100000000000029820003000052567802224131941335            GARCIA NUÑO CARMEN EUDOSIA                             GANC581102TB3                                                                                                                               000000                                                                                                                                                        
300010100100000000000108623003000052567802990085961336            CASTELLANOS CRUZ JUANA ELIZABETH                       CACJ530624TM6                                                                                                                               000000                                                                                                                                                        
300010100100000000000147242003000052567802990100971337            DAVILA BAUTISTA ANGEL                                  DABA541001LR9                                                                                                                               000000                                                                                                                                                        
300010100100000000000198846303000052567802990109981338            ALTAMIRANO RUIZ ARACELI                                AARA6102243I0                                                                                                                               000000                                                                                                                                                        
300010100100000000000175508303000052567802990099901339            CRUZ EUGENIA                                           CUSE501115EZ4                                                                                                                               000000                                                                                                                                                        
300010100100000000000157282303000052567802990107901340            HERNANDEZ MARTINEZ MAXIMINO                            HEMM540218JN9                                                                                                                               000000                                                                                                                                                        
300010100100000000000155485003000052567802990105921341            CORTES REYES MARIA MAGDALENA                           CORM630529C46                                                                                                                               000000                                                                                                                                                        
300010100100000000000173147303000052567802990096931344            SANCHEZ SOTO JOSEFINA LUCIA                            SASJ630325UB7                                                                                                                               000000                                                                                                                                                        
300010100100000000000199470003000052567802990110951345            MENDEZ SANCHEZ CLAUDIA ESTELA                          MESC640518U13                                                                                                                               000000                                                                                                                                                        
300010100100000000000023344903000052567806252386931347            LAZARO LOPEZ MARIA ROSAURA                             LALR650930PR9                                                                                                                               000000                                                                                                                                                        
300010100100000000000189631303000052567802990111941348            RAMIREZ JERONIMO KARINA                                RAJK581107JE5                                                                                                                               000000                                                                                                                                                        
300010100100000000000108279003000052567803301910961350            MAYA CONTRERAS MARGARITO                               MACM5512299I8                                                                                                                               000000                                                                                                                                                        
300010100100000000000156959003000052567803370911901351            PABLO MANUEL MARGARITA                                 PAMM6403077L7                                                                                                                               000000                                                                                                                                                        
300010100100000000000128765003000052567803370909941353            MARTINEZ HERNANDEZ AURELIA                             MAHA460929I98                                                                                                                               000000                                                                                                                                                        
300010100100000000000162572003000052567803855319981356            MARTINEZ GOMEZ JOSE ANASTASIO                          MAGA480415U27                                                                                                                               000000                                                                                                                                                        
300010100100000000000169001003000052567814752233971357            LOPEZ LOPEZ PETRONILA                                  LOLP600427H95                                                                                                                               000000                                                                                                                                                        
300010100100000000000179329003000052567803855356921358            MARTINEZ GARCIA DELTA REBECA                           MAGD6605016Z8                                                                                                                               000000                                                                                                                                                        
300010100100000000000131940703000052567803855321941359            BEAR BURGUETE MARIA EUGENIA                            BEBE5607134I9                                                                                                                               000000                                                                                                                                                        
300010100100000000000174663303000052567803855322931360            BAUTISTA CALLEJA MARGARITA                             BACM571017EW5                                                                                                                               000000                                                                                                                                                        
300010100100000000000150977303000052567808241778901362            MORALES MATIAS TERESA                                  MOMT651026TU4                                                                                                                               000000                                                                                                                                                        
300010100100000000000094905003000052567816287461951363            CONTRERAS IBAÑEZ BLANCA ANGELICA                       COIB660802932                                                                                                                               000000                                                                                                                                                        
300010100100000000000080073603000052567803855327981365            HERNANDEZ SANCHEZ EDILBERTO                            HESE610224RH1                                                                                                                               000000                                                                                                                                                        
300010100100000000000036904903000052567803855328971366            MARTINEZ CERVANTES EMMA                                MACE5704197V6                                                                                                                               000000                                                                                                                                                        
300010100100000000000128864003000052567803855279961367            REYES SANCHEZ GUADALUPE                                RESG581206R23                                                                                                                               000000                                                                                                                                                        
300010100100000000000205517303000052567803855280931368            BAUTISTA GARCIA IRMA ESTELA                            BAGI640105RP2                                                                                                                               000000                                                                                                                                                        
300010100100000000000194588303000052567802999576931369            BAUTISTA GARCIA ROSA OLIVA                             BAGR6009213VA                                                                                                                               000000                                                                                                                                                        
300010100100000000000135252303000052567802999577921370            MARTINEZ CRUZ ISABEL GUADALUPE                         MACI621209EQ7                                                                                                                               000000                                                                                                                                                        
300010100100000000000173147303000052567802999578911371            GONZALEZ ROMERO JOSE LUIS                              GORL6205022K8                                                                                                                               000000                                                                                                                                                        
300010100100000000000151585303000052567802999579901372            HERNANDEZ RAMIREZ MARTINA HORTENSIA                    HERM5311123H1                                                                                                                               000000                                                                                                                                                        
300010100100000000000090146003000052567802999580971373            GONZALEZ RUIZ PIO                                      GORP4508229GA                                                                                                                               000000                                                                                                                                                        
300010100100000000000203728003000052567820188049901374            GARCIA VASQUEZ ERNESTINO                               GAVE421110IA4                                                                                                                               000000                                                                                                                                                        
300010100100000000000071133303000052567803855267901375            ESQUIVEL VALOIS MANUEL AGUSTIN                         EUVM5306049Z7                                                                                                                               000000                                                                                                                                                        
300010100100000000000179629003000052567803855266911376            SANCHEZ CALVO ANTONIO                                  SACA551012B53                                                                                                                               000000                                                                                                                                                        
300010100100000000000140309303000052567802999581961377            AQUINO LOPEZ HERMELINDA                                AULH591027IG4                                                                                                                               000000                                                                                                                                                        
300010100100000000000106383903000052567802999582951378            BAUTISTA TORRES JUANA ERICA                            BATJ4811173Y4                                                                                                                               000000                                                                                                                                                        
300010100100000000000176008003000052567802999583941379            CASTELLANOS CASAUS EUFEMIA TERESA                      CACE480916790                                                                                                                               000000                                                                                                                                                        
300010100100000000000153635003000052567803855574981380            ROJAS GONZALEZ FAUSTA MARIELA                          ROGF590920LD5                                                                                                                               000000                                                                                                                                                        
300010100100000000000150242503000052567809946065951381            SUMANO HERNANDEZ SIRENIA MARIA                         SUHS631110319                                                                                                                               000000                                                                                                                                                        
300010100100000000000186682003000052567809195042971384            HERNANDEZ CRUZ ANTONIA                                 HECA480902CI3                                                                                                                               000000                                                                                                                                                        
300010100100000000000170187303000052567803855529941385            IBAÑEZ MATADAMAS ROSALBA GUADALUPE                     IAMR6003025F0                                                                                                                               000000                                                                                                                                                        
300010100100000000000184165003000052567803855530911386            CURIEL SANTIAGO VICTORIANO NOE                         CUSV510506436                                                                                                                               000000                                                                                                                                                        
300010100100000000000164419303000052567805753927971387            GOMEZ ROMERO BLANCA OLIVA                              GORB610315E3A                                                                                                                               000000                                                                                                                                                        
300010100100000000000128864003000052567803855573991388            CASTELLANOS AZCOYTIA MA DE LA SOLEDAD DO               CAAS620329MP7                                                                                                                               000000                                                                                                                                                        
300010100100000000000104171003000052567803855572901389            SANTIAGO LOPEZ DANIEL                                  SALD511008AMA                                                                                                                               000000                                                                                                                                                        
300010100100000000000165440003000052567808545631911390            CRUZ VIGIL IRENE                                       CUVI561020FZ0                                                                                                                               000000                                                                                                                                                        
300010100100000000000178029003000052567803646569981391            ARANGO GARCIA LEONOR                                   AAGL540510914                                                                                                                               000000                                                                                                                                                        
300010100100000000000155074003000052567803646570951392            SUAREZ DULCE MARIA                                     SUDU510912MV0                                                                                                                               000000                                                                                                                                                        
300010100100000000000179815003000052567803646571941393            GARCIA MATIAS LORENZA                                  GAML5708109X5                                                                                                                               000000                                                                                                                                                        
300010100100000000000178329003000052567802119641991394            BUSTAMANTE RODRIGUEZ ILDA                              BURI610215CUA                                                                                                                               000000                                                                                                                                                        
300010100100000000000063645303000052567800926524911395            CASTELLANOS CARRASCO SARA                              CACS6208318L1                                                                                                                               000000                                                                                                                                                        
300010100100000000000181205003000052567802125844911396            RAMIREZ RIOS ARMANDO GERARDO                           RARA611102EUA                                                                                                                               000000                                                                                                                                                        
300010100100000000000163355003000052567802125838991397            VALENCIA RAMIREZ CRESENCIO                             VARC421229IM9                                                                                                                               000000                                                                                                                                                        
300010100100000000000172678003000052567802125840951398            GARCIA VASQUEZ ELOY                                    GAVE530810G27                                                                                                                               000000                                                                                                                                                        
300010100100000000000163443003000052567819081006911400            JUAREZ MIJANGOS ELVIA FRANCISCA                        JUME581121TP8                                                                                                                               000000                                                                                                                                                        
300010100100000000000199770003000052567820188077951401            CANSECO AVELINO ROSAURA                                CAAR601030KNA                                                                                                                               000000                                                                                                                                                        
300010100100000000000205863003000052567803855537941402            VILLANUEVA ROBLEDO VICTORINA LUCERO                    VIRV6401227E0                                                                                                                               000000                                                                                                                                                        
300010100100000000000186982003000052567802125869911403            BARROSO LIMON GRACIELA                                 BALG490712S17                                                                                                                               000000                                                                                                                                                        
300010100100000000000101904603000052567803855540991406            HERNANDEZ MENDOZA EVANGELINA                           HEME601219235                                                                                                                               000000                                                                                                                                                        
300010100100000000000210699003000052567804260000941407            GARCIA OCHOA BEATRIZ EUGENIA                           GAOB570527G72                                                                                                                               000000                                                                                                                                                        
300010100100000000000210399003000052567804259998901408            ANTONIO VELASCO ISABEL                                 AOVI640704765                                                                                                                               000000                                                                                                                                                        
300010100100000000000131724003000052567804314401941410            PEREZ CABALLERO RICARDO                                PECR420403TK8                                                                                                                               000000                                                                                                                                                        
300010100100000000000163791303000052567804634944991411            TRUJILLO SANCHEZ GLORIA ADRIANA                        TUSG5003057P0                                                                                                                               000000                                                                                                                                                        
300010100100000000000178029003000052567804634893901412            ROMERO VERA MARTHA                                     ROVM670606FV3                                                                                                                               000000                                                                                                                                                        
300010100100000000000189689003000052567804634894991413            PEREZ SANTIAGO MIREYA                                  PESM550319433                                                                                                                               000000                                                                                                                                                        
300010100100000000000204028003000052567809176004931414            HERNANDEZ BAUTISTA MARIA INES                          HEBI541116NIA                                                                                                                               000000                                                                                                                                                        
300010100100000000000178029003000052567804314419941415            AZCONA LOPEZ ISABEL                                    AOLI600516674                                                                                                                               000000                                                                                                                                                        
300010100100000000000095544203000052567812607298971416            PAZ LOPEZ FRANCISCO JAVIER                             PALF570410IC9                                                                                                                               000000                                                                                                                                                        
300010100100000000000210399003000052567804565363971417            MATIAS VASQUEZ JUANA ANA                               MAVJ5403081C9                                                                                                                               000000                                                                                                                                                        
300010100100000000000176349003000052567804565356961418            SANTIAGO CALDERON AIDA                                 SACA670201UK2                                                                                                                               000000                                                                                                                                                        
300010100100000000000210699003000052567804565357951419            ROBLES URIOSTEGUI MARIO                                ROUM620131GI4                                                                                                                               000000                                                                                                                                                        
300010100100000000000203728003000052567804565362981420            TORRES GUZMAN OLGA                                     TOGO400328HQ3                                                                                                                               000000                                                                                                                                                        
300010100100000000000147787203000052567804565376921422            JUAREZ VALENCIA MARCELINA GREGORIA                     JUVM560426IY8                                                                                                                               000000                                                                                                                                                        
300010100100000000000135777303000052567804565377911423            HERNANDEZ CRUZ ELIAS LUIS                              HECE510417LJ8                                                                                                                               000000                                                                                                                                                        
300010100100000000000169001003000052567804565360901424            ATANACIO DOMINGUEZ DANIEL                              AADD421025144                                                                                                                               000000                                                                                                                                                        
300010100100000000000215235003000052567804565383931426            ROMERO ROJAS WILLEBALDO                                RORW591018VC1                                                                                                                               000000                                                                                                                                                        
300010100100000000000121914803000052567804565382941428            PEREZ MARIA EUGENIA SONIA                              PEEU6507218K4                                                                                                                               000000                                                                                                                                                        
300010100100000000000183865003000052567804565381951429            CURIEL HERNANDEZ AQUILINA                              CUHA530129Q81                                                                                                                               000000                                                                                                                                                        
300010100100000000000179629003000052567804565385911430            CANTON BARRITA MARTHA LULU                             CABM640526720                                                                                                                               000000                                                                                                                                                        
300010100100000000000127681203000052567804565380961431            GUTIERREZ HERNANDEZ MARIA DE LA LUZ                    GUHL610308BE5                                                                                                                               000000                                                                                                                                                        
300010100100000000000210699003000052567809946134921432            MULATO DOMINGUEZ YOLANDA                               MUDY5906129C7                                                                                                                               000000                                                                                                                                                        
300010100100000000000178029003000052567804565378901433            RAMOS HERNANDEZ ISABEL PATRICIA                        RAHI6511106F1                                                                                                                               000000                                                                                                                                                        
300010100100000000000057678303000052567804565423951434            LOPEZ BRAVO SERAFINA                                   LOBS591125G58                                                                                                                               000000                                                                                                                                                        
300010100100000000000155013803000052567804565472951435            PEREZ AQUINO CANDELARIA                                PEAC6202024N7                                                                                                                               000000                                                                                                                                                        
300010100100000000000139736203000052567804565425931437            SCHULTZ VARELA MIGUEL ANGEL                            SUVM3009297J0                                                                                                                               000000                                                                                                                                                        
300010100100000000000104769003000052567812486466921439            MARISCAL CID ISABEL CRISTINA                           MAIS600323PI9                                                                                                                               000000                                                                                                                                                        
300010100100000000000111484003000052567804565525921440            RUIZ ROBLES ROSA LIVIA                                 RURR631121IK6                                                                                                                               000000                                                                                                                                                        
300010100100000000000148109003000052567805667073911441            FELIX JIMENEZ ALFONSO ROLANDO                          FEJA5509204YA                                                                                                                               000000                                                                                                                                                        
300010100100000000000038983203000052567805667107911442            VILLARREAL PAZ RODOLFO FRANCISCO                       VIPR530727NDA                                                                                                                               000000                                                                                                                                                        
300010100100000000000134657303000052567805667109991443            LOZANO CARRANZA ALEJANDRO                              LOCX480424AD1                                                                                                                               000000                                                                                                                                                        
300010100100000000000148227303000052567805794546921444            CRUZ JAVIER FLORENTINA                                 CUJF630501CMA                                                                                                                               000000                                                                                                                                                        
300010100100000000000072921403000052567805794543951445            SANDOVAL GONZALEZ MANUELA GRACIELA                     SAGM5401019R4                                                                                                                               000000                                                                                                                                                        
300010100100000000000169301003000052567805794582971446            SANTOS GARCIA ALISEA ALICIA                            SAGE500614IMA                                                                                                                               000000                                                                                                                                                        
300010100100000000000179665003000052567805794550951447            CRUZ GARCIA FLORENCIA                                  CUGF601027RG9                                                                                                                               000000                                                                                                                                                        
300010100100000000000144491003000052567805794549991448            DIAZ VALLE MARCELINO                                   DIVM570801U58                                                                                                                               000000                                                                                                                                                        
300010100100000000000173348003000052567814470913931449            PEREZ GARCIA ROSALIA                                   PEGR590904                                                                                                                                  000000                                                                                                                                                        
300010100100000000000182565003000052567805667112941451            TOMAS MARTINEZ LUIS                                    TOML490315GJ7                                                                                                                               000000                                                                                                                                                        
300010100100000000000127646003000052567805667110961452            ZAVALA SANCHEZ MIRNA ROSA                              ZASM540120397                                                                                                                               000000                                                                                                                                                        
300010100100000000000074981303000052567805794540981453            VASQUEZ HERNANDEZ RICARDO PEDRO                        VAHR560207                                                                                                                                  000000                                                                                                                                                        
300010100100000000000145191003000052567860143784951454            ALTAMIRANO RAMIREZ ROSA                                AARR520831B45                                                                                                                               000000                                                                                                                                                        
300010100100000000000214935003000052567805794539911455            MOLINA REVILLA ADRIAN                                  MORA550305EH6                                                                                                                               000000                                                                                                                                                        
300010100100000000000165098003000052567805667071931456            VASQUEZ PEREZ VICTOR                                   VAPV570222B89                                                                                                                               000000                                                                                                                                                        
300010100100000000000147039003000052567805794542961457            NAVARRO MARTINEZ CRISPINA GUADALUPE                    NAMC641205LU3                                                                                                                               000000                                                                                                                                                        
300010100100000000000177683303000052567805667108901459            VELASCO QUINTERO BRICIA AUDILIA                        VEQB5911106L2                                                                                                                               000000                                                                                                                                                        
300010100100000000000145191003000052567811329069961460            HERNANDEZ PEREZ MAGDALENA                              HEPM5805228D9                                                                                                                               000000                                                                                                                                                        
300010100100000000000071616703000052567814470805941461            MARTINEZ CARMONA MAGDALENA                             MACM6105264A8                                                                                                                               000000                                                                                                                                                        
300010100100000000000132175803000052567805794541971462            GARCIA MENDOZA AMOS LUCIO                              GAMA580316SS8                                                                                                                               000000                                                                                                                                                        
300010100100000000000166314003000052567805794547911463            HERNANDEZ PEREZ ANA MARIA                              HEPA621108AI1                                                                                                                               000000                                                                                                                                                        
300010100100000000000157737303000052567805794553921465            LEYVA VILLAVICENCIO GUDELIA ELVIA                      LEVG560929FX6                                                                                                                               000000                                                                                                                                                        
300010100100000000000131365203000052567805794584951466            NUÑEZ TRUJILLO ANGELICA                                NUTA640412TZ0                                                                                                                               000000                                                                                                                                                        
300010100100000000000137134303000052567805794565981467            DAVILA GARCIA CATALINA MARGARITA                       DAGC471125CC1                                                                                                                               000000                                                                                                                                                        
300010100100000000000186682003000052567805794562911468            SOSA ALONZO ANGELICA                                   SOAA651121179                                                                                                                               000000                                                                                                                                                        
300010100100000000000055738303000052567805794563901470            CRUZ MENDOZA ALMA MICAELA                              CUMA630521PF0                                                                                                                               000000                                                                                                                                                        
300010100100000000000071133303000052567805794560931471            LALO AZCONA INOCENCIO                                  LAAI5612289T0                                                                                                                               000000                                                                                                                                                        
300010100100000000000169090003000052567805794569941472            CRUZ JIMENEZ BERTHA                                    CUJB620610RA5                                                                                                                               000000                                                                                                                                                        
300010100100000000000144191003000052567805794567961473            NIÑO SERNA NELIDA CAROLINA                             NISN6102053S7                                                                                                                               000000                                                                                                                                                        
300010100100000000000143665003000052567805794568951474            BAZAN SANTIAGO JOSEFINA ISABEL                         BASJ6003193X6                                                                                                                               000000                                                                                                                                                        
300010100100000000000043734803000052567805794558971475            JACOB MATEOS EMMA                                      JAME590805Q40                                                                                                                               000000                                                                                                                                                        
300010100100000000000170320003000052567805794557981476            GARCIA MARTINEZ ALICIA                                 GAMA561203JD3                                                                                                                               000000                                                                                                                                                        
300010100100000000000080458003000052567805794556991477            RAMOS PEREZ SADOT                                      RAPS5803032S2                                                                                                                               000000                                                                                                                                                        
300010100100000000000179545003000052567805794572991478            ZAYAS RANGEL LETICIA YOLANDA                           ZARL6209038H9                                                                                                                               000000                                                                                                                                                        
300010100100000000000120732003000052567805794555901479            ALFARO DOMINGUEZ ROBERTO                               AADR460103RI7                                                                                                                               000000                                                                                                                                                        
300010100100000000000194213003000052567805794564991480            GARCIA MENDEZ CRISTOBAL                                GAMC370724KM1                                                                                                                               000000                                                                                                                                                        
300010100100000000000174965003000052567810845069921481            RAMOS MENDEZ ABIGAIL                                   RAMA6404014N3                                                                                                                               000000                                                                                                                                                        
300010100100000000000138442003000052567805794585941482            DAVILA NAVARRO EUGENIA ISABEL                          DANE560707EH3                                                                                                                               000000                                                                                                                                                        
300010100100000000000183865003000052567805794581981483            HERNANDEZ HERNANDEZ ROCIO CLEMENTINA                   HEHR631123MS7                                                                                                                               000000                                                                                                                                                        
300010100100000000000214935003000052567805794587921484            SARABIA LLORENTE MARIA ELENA ARMIDA                    SALE551016QB8                                                                                                                               000000                                                                                                                                                        
300010100100000000000137337003000052567805794579921485            MARTINEZ NUÑEZ MARGARITA ALICIA                        MANM611023I85                                                                                                                               000000                                                                                                                                                        
